:03000000020C4AA5
:0C0C4A00787FE4F6D8FD75813F020C9124
:10109A00E4FFFE75FF800FBF00010EEF64144E706F
:0410AA00F575EF06E3
:0110AE00221F
:10106E0075D84053D9BFE4F5D975DA4675D2FF432A
:06107E00D92075FC0222DE
:10000300758922758E04758C4B758D2B75CA6B752E
:09001300CBE575CC6B75CDE5223F
:0410F50075981022B8
:0410F90075C1C022DB
:07001C0075A140E4F5F82294
:0A10D40075BB0F75BCFA75E88022A9
:0410FD0075B9F322AC
:10105600E4FFFE759B800FBF00010EEF64234E7008
:07106600F5539BCF759F704D
:01106D002260
:0411010075D11A2268
:1010840075F1FE75A45475A54E75A67075D44F758B
:06109400E10575E2C12236
:10102D00E4FFFE53E3DF75B61043E32075AB800F8D
:10103D00BF00010EEF64144E70F543ABC0E5AB304D
:08104D00E5FB75A90275B287ED
:011055002278
:0411050075A8902217
:100FD80012109A12106E1200031210F51210F91264
:100FE800001C1210D41210FD12105612110112100A
:070FF8008412102D02110507
:100F7000FC60DAF266B6BEE0FEF69C0000000000FF
:100F80000300272421090C15120F1B1E062D040136
:100F90002825220A0D1613101C1F072E05022926CC
:0A0FA000230B0E1714111D20082F5B
:100FAA008E268F278D287410C39DCD7C08EE339230
:100FBA0086D282DD02D2A4C282DCF37C08EF3392AD
:0E0FCA0086D282DD02D2A4C282DCF3C2A4224F
:10100000751B36751CAC431B80431CFC431B03E45F
:10101000F5247DFFAF1CAE1B120FAA0524E524C3E7
:0D102000940240EE7D0BAF1CAE1B020FAA28
:100D49009000707401F0A37400F0A37440F075254D
:100D590010752402900070E0FBA3E475F0011207FE
:100D69001AA9F0FA1206887F00FE7DFF120FAAD594
:100D790024E2900070E0FBA3E475F00112071AA9C0
:100D8900F0FA1206887F00FE7D01120FAAD525C14F
:100D9900900070E0FBA3E0FAA3E0F91206887F0057
:060DA900FE7D03020FAA0B
:100B8B008F38E51AD394054003751A05E53824F41C
:100B9B00601614600D24ED602224DD7023900F7A13
:100BAB008031E4F51AAF3822E4F51AFE7F30FD7B75
:100BBB00017A00794012086AAF3822E4F5398017C0
:100BCB00E538540FFF3395E0FE74702FF582740FE8
:100BDB003EF583E493F539E4FFE53930E72C783AB9
:100BEB00E6FEE51A75F007A42480F582E4340FF5D0
:100BFB0083E5822FF582E43583F583E4932440F576
:100C0B0082E43400F583EEF08026E51A75F007A434
:100C1B002480F582E4340FF583E5822FF582E435E9
:100C2B0083F583E4932440F582E43400F583E4F008
:0F0C3B00E53925E0F5390FBF079F051AAF3822BD
:1010C3000C253032627525303262752530326275F7
:0110D300001C
:100A7E00120FD8E4F5D3121000D2CAD28EE4F5D3F9
:100A8E00F522F52374402523F58274003522F58373
:100A9E00E4F00523E523700205226430452270E45C
:100AAE00120D49120EAA120E0F402FE4F522F52355
:100ABE00743A2523F8E4F60523E523700205226433
:100ACE0006452270EB783A7605E408F6120EF07FB2
:100ADE00007E007D007C00120E63783A7632087636
:100AEE0003120EF0E4F5D3F522F523E4F5D330CF5F
:100AFE00FDC2CF120F318F198E188D178C1612085A
:100B0E00F97BFF7A1079C38514278515288512295C
:100B1E00120088E51230E0047F0080027F509000C2
:100B2E006AEFF0E514D3940740047F0180027F0042
:100B3E00E514C3941350047E0180027E00EE5F60C4
:100B4E00047F3280027F14783AA607120D49E5140D
:100B5E007011E515700DE5127009300B06C20BC24F
:100B6E000AD292200B85300A82C2921203828F190A
:0D0B7E008E188D178C16120E63D20B41F9E4
:100DAF000000001F003C005B0079009800B600D5E2
:100DBF0000F401120131014F016E018D01A901C82B
:100DCF0001E60205022302420261027F029E02BC7B
:100DDF0002DB02FA0316033503530372039003AFCA
:100DEF0003CE03EC040B042904480467048304A214
:100DFF0004C004DF04FD051C053B05590578059665
:0A10DE00E5AC20E7FB8FAC8DAD22DE
:1010AF00E5AC20E7FB8FACEF4480F5ACE5AC20E777
:0410BF00FBAFAD22B4
:100E0F0075841875AC0EE4F5ADE5AC20E7FB75AC59
:100E1F000FE4FF43AC80E5AC20E7FB743A2FF8A654
:100E2F00AD743A2FF8E6F5850FBF04E743AC80E5C4
:100E3F00AC20E7FB758410E5AD65866002C32243E5
:100E4F00AC80E5AC20E7FB758411E5AD65866002EB
:030E5F00C322D3D8
:010E6200226D
:100EF00075841875AC0EE4F5ADE5AC20E7FB75AC78
:100F00000FE4FF743A2FF8E6F585743A2FF8E6F50A
:100F1000ADE5AC20E7FB0FBF04E97584108586AD15
:100F2000E5AC20E7FB7584118586ADE5AC20E7FBD9
:010F3000229E
:100EAA00D200E5AEB4030343EF20E5AE700675AE9B
:100EBA00A575AEF17F061210AFEF20E50320E723F8
:100ECA00C200E4FD7F061210DE7D400F1210DE7DA7
:100EDA00C01210DE7D801F1210DE7F071210AFEFE6
:050EEA0030E4F7A20056
:010EEF0022E0
:100F31007DD17F061210DE7F061210AFEF20E0F7A1
:100F4100752802752904E529601CAF281210AF1518
:100F510029E5297C007B002424F9EC3400FAEF1206
:0E0F610006A1052880E0AF27AE26AD25AC2402
:010F6F00225F
:080E63008F278E268D258C24BB
:100E6B00E4FDFF1210DE0F1210DE7E02752804E582
:100E7B0028601BAF0615287C007B0074242528F9FD
:100E8B00EC3400FA120688FD1210DE0E80E17DD2E2
:0E0E9B007F061210DE7F061210AFEF20E1F787
:010EA9002226
:0808F9008F278E268D258C242B
:10090100C3E5279450F527E5269419F526E52594A6
:100911006DF525E5249438F524E47B3CFAF9F8AF2C
:1009210027AE26AD25AC241207BBAF038F12AF272C
:10093100AE26AD25AC24E47B3CFAF9F81207BB8F57
:10094100278E268D258C24E47B3CFAF9F81207BB0F
:10095100AF038F15AF27AE26AD25AC24E47B3CFA5F
:10096100F9F81207BB8F278E268D258C24E47B187E
:10097100FAF9F81207BBAF038F14AF27AE26AD25E6
:10098100AC24E47B18FAF9F81207BB8F278E268D69
:10099100258C24E47BB57A05F9F81207BBE47B04C6
:1009A100FAF9F81207308E288F29AF27AE26AD2528
:1009B100AC24E47BB57A05F9F81207BBAC00AD01B4
:1009C100AE02AF038F278E268D258C24752A0075E4
:1009D1002B03900DAF75F018E52B12085EE52A7513
:1009E100F018A42583F583E493FE740193FFE4FCDE
:1009F100FDAB27AA26A925A824C312084D500EE550
:100A01002B152B7002152AE52B452A70C5752C0B69
:100A1100E52B75F018A424AFF582E4340DF5837548
:100A2100F002E52C12085EE493FE740193FFE4FCEE
:100A3100FDAB27AA26A925A824C312084D5003D52A
:100A41002CCEE52C04F510E52B75F018A424AFF598
:100A510082E4340DF58375F002E52C12085E740111
:100A610093FFC3E5279F04F513E529252BFFE5280F
:0C0A7100352AFE7C007D641206C58D1144
:010A7D002256
:0810E800244750524D432C0037
:0410F000021E10E8E4
:03002300020CD6F6
:0B0CD600C0E0C083C082C0D075D00811
:100CE1001098028058AF99200A53200928E51F2542
:100CF1001DF582E4351EF583E4936F6005E51DB4AF
:100D0100020E051DE51D64077033D209F51D802D06
:100D1100751D0080287400251DF8EFF2051D642A59
:100D21006007E51DD3943D4014C209751D00780B81
:0F0D3100E2B44109E51DC3943C5002D20AC299B5
:090D4000D0D0D082D083D0E03283
:100382007800E2540FFF3395E0FE7C007D0A1206EE
:10039200B37801E2540FFD3395E0FCEF2DF525EE25
:1003A2003CF52408E2540FFF3395E0FE7C007D0A01
:1003B2001206B37803E2540FFD3395E0FCEF2DF5FE
:1003C20027EE3CF52608E2540FFF3395E0FE7C0051
:1003D2007D0A1206B37805E2540FFD3395E0FCEF77
:1003E2002DF529EE3CF528E4FFFE7B05FAC3EF94D8
:1003F20008EE6480948050140BEB70010A14240000
:10040200F8E2B42CE80FBF00010E80E174002BF873
:10041200E2540FFF3395E0FE7C007D0A1206B374AE
:10042200012BF8E2540FFD3395E0FCEF2DF52BEE96
:100432003CF52A74022BFB74002BF8E2540FFF33B5
:1004420095E0FE7C007D0A1206B374012BF8E2549B
:100452000FFD3395E0FCEF2DF52DEE3CF52C7402EB
:100462002BFB74002BF8E2540FFF3395E0FE7C0067
:100472007D0A1206B374012BF8E2540FFD3395E0A6
:10048200FCEF2DFFEE3CCF24D0F52FEF3407F52EF5
:10049200D3E52D9402E52C648094805013740C25CE
:1004A2002DF52DE4352CF52CE52F152F7002152E88
:1004B200AE2EAF2FEE3395E0FDFCE47B04FAF9F8A3
:1004C2001207BBC004C005C006C007AE2EAF2FEE98
:1004D2003395E0FDFCE47B6D7A01F9F8120730D028
:1004E20003D002D001D000EF2BFFEE3AFEED39FD32
:1004F200EC38FCC004C005C006C007AE2EAF2FEE1C
:100502003395E0FDFCE47B64FAF9F81207BBAB0714
:10051200AA06A905A804D007D006D005D004C3EFC7
:100522009BFFEE9AFEED99FDEC98FCC004C005C05D
:1005320006C007AE2EAF2FEE3395E0FDFCE47B90B4
:100542007A01F9F81207BBD003D002D001D000EB38
:100552002FF533EA3EF532E93DF531E83CF530AEB0
:100562002CEE3395E0FDFCE52D2401FFE43EFEE494
:100572003DFDE43CFCE47B03FAF9F8120730E47B2E
:1005820005FAF9F81207BBC004C005C006C007AEE1
:100592002CAF2DEE3395E0FDFCE47B1EFAF9F81248
:1005A2000730D003D002D001D000EF2BFBEE3AFA95
:1005B200ED39F9EC38F8AE2AEE3395E0FDFCEB2587
:1005C2002BFFEA3EFEE93DFDE83CFCE5332FF53327
:1005D200E5323EF532E5313DF531E5303CF530C3EB
:1005E200E53394C9F533E53294FAF532E531940AEC
:1005F200F531E5309400F530AF33AE32AD31FC7BEE
:10060200807A51790178001207308F338E328D3122
:100612008C30AE26AF27EE3395E0FDFCE47B3CFA4E
:10062200F9F8120730C004C005C006C007AE24AFF7
:1006320025EE3395E0FDFCE47B107A0EF9F8120703
:1006420030D003D002D001D000EF2BFBEE3AFAED0E
:1006520039F9EC38F8AE28EE3395E0FDFCEB2529AC
:10066200FFEA3EFEE93DFDE83CFCE5332FF533E5CC
:10067200323EF532E5313DF531E5303CF530AF3310
:05068200AE32AD31FCB9
:010687002250
:100C5600020A7EE493A3F8E493A34003F68001F22C
:100C660008DFF48029E493A3F85407240CC8C3339F
:100C7600C4540F4420C8834004F456800146F6DF6E
:100C8600E4800B01020408102040809010F0E47EFE
:100C9600019360BCA3FF543F30E509541FFEE49363
:100CA600A360010ECF54C025E060A840B8E493A32A
:100CB600FAE493A3F8E493A3C8C582C8CAC583CA55
:100CC600F0A3C8C582C8CAC583CADFE9DEE780BE0D
:0110F40000FB
:10068800BB010689828A83E0225002E722BBFE0270
:09069800E32289828A83E49322A3
:1006A100BB010689828A83F0225002F722BBFE0138
:0206B100F32232
:1006B300EF8DF0A4A8F0CF8CF0A428CE8DF0A42E5B
:0206C300FE2215
:1006C500BC000BBE0029EF8DF084FFADF022E4CC19
:1006D500F875F008EF2FFFEE33FEEC33FCEE9DECE2
:1006E500984005FCEE9DFE0FD5F0E9E4CEFD22ED28
:1006F500F8F5F0EE8420D21CFEADF075F008EF2F72
:10070500FFED33FD4007985006D5F0F222C398FD62
:050715000FD5F0EA22FF
:10071A00A3F8E0C5F025F0F0E58215827002158392
:06072A00E0C838F0E822EF
:10073000E88FF0A4CC8BF0A42CFCE98EF0A42CFC68
:100740008AF0EDA42CFCEA8EF0A4CDA8F08BF0A4E6
:100750002DCC3825F0FDE98FF0A42CCD35F0FCEB45
:100760008EF0A4FEA9F0EB8FF0A4CFC5F02ECD390A
:0F077000FEE43CFCEAA42DCE35F0FDE43CFC2277
:10077F0075F008758200EF2FFFEE33FECD33CDCC31
:10078F0033CCC58233C5829BED9AEC99E5829840B4
:10079F000CF582EE9BFEED9AFDEC99FC0FD5F0D691
:1007AF00E4CEFBE4CDFAE4CCF9A88222B800C1B9BB
:1007BF000059BA002DEC8BF084CFCECDFCE5F0CBF9
:1007CF00F97818EF2FFFEE33FEED33FDEC33FCEB32
:1007DF0033FB10D703994004EB99FB0FD8E5E4F9ED
:1007EF00FA227818EF2FFFEE33FEED33FDEC33FCDA
:1007FF00C933C910D7059BE99A4007EC9BFCE99ACE
:10080F00F90FD8E0E4C9FAE4CCFB2275F010EF2F12
:10081F00FFEE33FEED33FDCC33CCC833C810D70712
:10082F009BEC9AE899400AED9BFDEC9AFCE899F84D
:0E083F000FD5F0DAE4CDFBE4CCFAE4C8F922E0
:10084D00EB9FF5F0EA9E42F0E99D42F0E89C45F001
:01085D002278
:0C085E00A42582F582E5F03583F58322A5
:10002600E5332427F8E605332278243007027827BB
:10003600E475F0011208C30206882000EB7F2ED279
:10004600008018EF540F2490D43440D4FF30040BB2
:10005600EF24BFB41A0050032461FFE53460021593
:10006600340537E5377002053630070D7824E47518
:10007600F0011208C3EF0206A1020B8B7403D2072C
:100086008003E4C207F5338B248A258926E4F534F8
:10009600F536F537E53460077F2012006180F57587
:1000A60035FFC201C200C202C203C205C206C208AF
:1000B60012002FFF700D3007057F00120072AF3758
:1000C600AE3622B4255FC2D5C20412002FFF24D05B
:1000D600B40A00501A75F00A783430D50508B6FF10
:1000E6000106C6A426F620D5047002D20380D924C0
:1000F600CFB41A00EF5004C2E5D204020272D20154
:1001060080C6D20080C0D20280BCD2D580BAD205C9
:1001160080B47F201200612002077401B5340040CC
:10012600F1120026FF12006102009AD208D2068060
:1001360095120026FB120026FA120026F94A4B7089
:100146000679437A037BFF20022EE534602A7E007F
:100156008E8275830012089660060EEE653570F085
:10016600C2D5EBC0E0EAC0E0E9C0E0EE1202B9D0C9
:10017600E0F9D0E0FAD0E0FB120688FF60AAEBC0F7
:10018600E0EAC0E0E9C0E0120061D0E02401F9D065
:10019600E03400FAD0E0FBE5350460DCD535D980E3
:1001A600877BFF7A0279B5D202809C79108002792A
:1001B60008C206C2088008D2D5790A8004790AC224
:1001C600D5E535047002F535E4FAFDFEFF1200268A
:1001D600FC7B08200113120026FD7B1030000A125A
:1001E6000026FE120026FF7B20EC3382D592D550E6
:1001F60013C3E43000069FFFE49EFEE42001039D46
:10020600FDE49CFCE4CBF8C201EC700CCFCECDCC67
:10021600E824F8F870F38017C3EF33FFEE33FEEDF2
:1002260033FDEC33FCEB33FB994002FB0FD8E9EBD3
:10023600300105F8D0E0C448B201C0E00AEC4D4EEA
:100246004F78207B0070C2EAB5350040BCC0E01292
:1002560002BBD0F0D0E0200104C4C0E0C4B201C0AB
:10026600F012004AD0F0D5F0EB02009A1208D30142
:10027600375301B15801084C01044201B54F01BD85
:0F0286004401BD49011D4301C35501A74601A70E
:100295004501A747036350010C2D01102E01332B97
:1002A500011423013120034C2A00CC480000012B06
:1002B5003F3F3F00790AA2D5200314300509B91044
:1002C500020404B9080104A2D52006025001042045
:1002D50002689202B534005034C0E07F2030031923
:1002E5007F30A20272067205500F120312C202C2BB
:1002F50006C205C2087F30800F300503E9C0E01251
:100305000061300503D0E0F9D0E0B534CC300517F5
:100315007F30B9100C1200617F583004077F788058
:1003250003B908031200613002057F2D0200617FC9
:10033500202008F87F2B2006F322920280CF286E1A
:10034500756C6C2900D2011200263001F8C20178C3
:100355003430D50108F60200CC2D5043495812001F
:10036500262403B405004001E490035E9312005275
:0D037500743A120052D2037534040201B133
:10086A00EF4E6012EF60010EEDBB010B89828A83A5
:10087A00F0A3DFFCDEFA2289F05007F709DFFCA9B2
:0C088A00F022BBFEFCF309DFFCA9F02209
:10089600BB010CE58229F582E5833AF583E0225017
:1008A60006E92582F8E622BBFE06E92582F8E22261
:0D08B600E58229F582E5833AF583E493227B
:1008C300FAE6FB0808E6F925F0F618E6CA3AF62236
:1008D300D083D082F8E4937012740193700DA3A3B4
:1008E30093F8740193F5828883E4737402936860C8
:0608F300EFA3A3A380DFC8
:00000001FF
